:020000040000FA
:10000000A0018A150A1200280B1F1128FD00030EFB
:100010008301FC008C10FB0A7C0E8300FD0E7D0E1C
:1000200009008A15A2218A119B2A8B174B080339D4
:10003000031D1E2883168614831221288316861515
:1000400083124B080339031D2E28861837288B137B
:1000500083168611831286119A273F2B861937281B
:100060008B138316861083128610A9279C2BF91EEA
:1000700055280C1E5528831686108611831286106B
:10008000861138083902031D4728F91215288317ED
:10009000380A840050300402031884010408B800B0
:1000A000903084070008990015288C1E6C28831650
:1000B00086108611831286108611981C62281812E9
:1000C00018161528181D66281A0815281A08F3008E
:1000D000FA1FD428242715287B084B02031921284E
:1000E0008316861086118312861086118B13C830F2
:1000F0007B02031C8A28FB00CB008B178A15B023D8
:100100008A110130A900791F8E2879138F23F030CE
:100110004F2791287B08CB008B179128F91F912836
:1001200085278A1591228A114B181528781F1528C2
:10013000F919BD287919A428F91C1528CE0BA42873
:100140000A30CE00CF0AE9240509F400740C1F39E7
:10015000F40026020319B0287408A600FE30B9285E
:1001600007091F39F4002702031915287408A7008E
:10017000FF30C000B527B824772ACC0B15284A08D1
:10018000CC00B5278A15F2208A11F401261AF4143E
:10019000271A741474084F27260EF039F400270824
:1001A0000F3974044F27772AF817F9117308033CA5
:1001B000031DEF28F6304F2703304F2749084F27FC
:1001C00022084F270301871A01304F27A830B12793
:1001D0004F27A930B1274F272A084F271528730822
:1001E000043C031DFB28A20141271A3C031C7E2A64
:1001F0007308A83E1A297308063C031D0829073016
:100200006D274127073C031C7E2A7308903E1A295C
:100210007308053C031D372907306D2741277309F3
:100220000319192973088F3C031C7E2A7308003EAA
:100230001A29C230F2004127031783168C181E2991
:10024000831272088D0073088C0083168C130310C0
:100250008B1B03148B130C1555308D00AA308D00A9
:100260008C1403188B170C118312031315287308B1
:10027000073C031D3E294127A80015287308083CA8
:10028000031D45297910F811A42A7308093C031DA0
:1002900055294127E6004127E7004127E80041278B
:1002A000E900A0247910F815A42A73080A3C031D5C
:1002B000632941279C24EE0041279C24EF00EC0198
:1002C000ED017914A42A73080B3C03197D2A7308E5
:1002D0000C3C031D722941279C24DC0041279C24EF
:1002E000DD008D2973080D3C031D8029F81D15289C
:1002F000F9191528F730C0008613A8258617152888
:1003000073080E3C031D922941274127E200412733
:10031000E3004127E4004127E5008A15272434241F
:100320008A11152873080F3C031D98297816152883
:100330007308103C031D9E29781215287308113C80
:10034000031DA32915287308123C031DA929F812BF
:1003500015287308133C031DAF29F81315287308DB
:10036000143C031DB729F91079157817152873085F
:10037000153C031DBF29F91079117817152873084A
:10038000163C031DD329781F1528F9181528F919CB
:1003900015280509A600260C1F39A60007091F39D4
:1003A000A700FD30B9287308173C031DDE2941273B
:1003B0009C24CA00CC00F915781715287308183C3E
:1003C000031DE32915287308193C031DFA29412749
:1003D000D0004127D1004127D2004127D300412737
:1003E000D4004127D500D601FF30D700F914791188
:1003F0007817152873081A3C031D002A781315284E
:1004000073081B3C031D132A163084000630F200CB
:10041000412783178000840AF20B082ACB018A1532
:1004200006248A11152873081C3C031D1A2AB527B7
:10043000AB24772A7308203C031D322A4127BB00D6
:100440004127BA004127AC003A043B0403192A2A89
:10045000FA17152807306D2783278C2783018A1503
:100460000A1201287308213C031D792A4127F40050
:100470008313731883174127F5008400B527F630DE
:100480004F2720304F27F41B5A2A0630F2007408F9
:10049000213C0319532A00084F27840A03198317A4
:1004A000F20B4B2A772A7508B1274F27F50AF20B72
:1004B000532A772AF4130330F200031783127408C7
:1004C0008F0075088D0083168C170C140000000037
:1004D00083120C08FE000E08FF0003137F084F274D
:1004E0007E084F27F50A0319F40AF20B5D2AB82794
:1004F00015287308223C031D802A4127412715280F
:100500007308803C031DA62A4127013C031D1528C2
:10051000F801F901FA01BE01BF01D601B801B90124
:100520008712B527A01F962A8C27F917201F9B2A10
:1005300007306D277917A024C230B127023C031978
:10054000FA1579157817F817F81615287308873CE7
:10055000031DB22AF6304F2707304F2728084F27B0
:100560000530382B7308883C0319BE2A7308893C70
:100570000319BE2A73088A3C031DD82AF6304F2778
:100580007918D22AF819C62A0830362B09304F2795
:1005900066084F2767084F2768084F2769084F27C5
:1005A0000230382B0A304F276E084F276F08EF2A8A
:1005B00073088B3C031DE42AF6304F270B304F277E
:1005C00001304F270130EF2A73088C3C031DF22ABB
:1005D000F6304F270C304F275C084F275D084F2718
:1005E0000430382B73088F3C0319FA2A7308903CA7
:1005F000031D002BF6304F270F30781E1030362B9E
:100600007308923C031D0A2BF6304F270301F81E96
:100610001230362B7308943C0319162B7308953C43
:100620000319162B7308993C031D2D2BF6304F2709
:10063000F9181E2B1430791D1530362B19304F2721
:1006400050084F2751084F2752084F2753084F276C
:1006500054084F2755084F27152873089A3C031D47
:100660001528F6304F270301781F1A304F27063020
:100670005327152811277C2715287F27152883162F
:10068000861083128610F61F3D2B7308AA3C0319AF
:100690008C2B7308FC3C03193A2B7308FE3C03199E
:1006A0003A2BFA1D7E2B7A19622B7308E03C031D4E
:1006B0005B2B7A1415287308E13C031D7E2BFA147A
:1006C0007A151528FA186C2B7308F03C0319822B45
:1006D000FA1079127A1415287308F03C0319822B4A
:1006E0007308773C031D892BF9197C2B06134F30B7
:1006F000791A80384F2706177A11892B7308F03C36
:10070000031D842B79161528F919892B0613482601
:10071000061779127A1015288F23201715287627A7
:10072000FA1D742702306D278127061708008527D8
:1007300015288827C801152883168611831286116B
:10074000F61F992B4808031DB12B7308AA3C031907
:10075000952C7308FC3C0319972B7308FE3C031976
:10076000972BC80A4808013C0319BF2B4808023CD4
:100770000319C92B4808033C0319CC2BD22B73084F
:10078000C400C41BC72B441BC72BC4191528C801A0
:1007900015287308C50015287308C600F81CD42B4B
:1007A000C70115287308C700C801A3014418A31482
:1007B000C41823142308F838C000C301C101C201C2
:1007C000441DE52B9430B127C300C513441AC51747
:1007D0004508EA00F81D0F2CF701C51BF709DF07D4
:1007E00077080318770FDE07DE1B0E2C8A154124CD
:1007F0008A11660862020319002C031C0F2C062CB8
:10080000670863020319062C031C0F2C6708E3001A
:100810006608E2008A1527248A110F2CA624C61325
:10082000C41AC617781A162CC609C60A4608EB0061
:10083000F81D3D2CF701C61BF709E10777080318DF
:10084000770FE007E01B3C2C8A154C248A116808BE
:10085000640203192E2C031C3D2C342C69086502FC
:100860000319342C031C3D2C6908E5006808E400DA
:100870008A1534248A113D2CA124F81C652CC71933
:100880004F2C47080F390319582C471C4B2C91301B
:10089000B127C100582C9230B127C100582C471CF9
:1008A000552C9030B127C100582C9330B127C1008E
:1008B000781D652C471E602C9530B127C200652C31
:1008C000C71E652C9630B127C200F81E1528F919ED
:1008D00015288613A825281C7B2C230824060139FB
:1008E0000319742C23188B2C2308240602390319AE
:1008F0007B2CA3188B2CA81C912C230824060139CF
:100900000319842C231C8B2C230824060239031979
:10091000912CA318912C2308A500A509F730C0003D
:10092000A82586172308A40015282826F818382695
:100930008A278617A01715280038031901300800E8
:10094000A624E101E001E501E4010800DF01DE0188
:10095000E301E2010800FC304F2716308400063026
:10096000F200831700084F27840AF20BB12C08000D
:10097000F81EC22CF930271EF8304F2700304F27C1
:1009800000304F274008FD3C031DCC2C40084F276A
:100990002608E3242708E32C4008FE3C031DDA2C3C
:1009A000F91CD62C7430261EF4304F2F40084F27E8
:1009B0002608E32CF91CE02C7530271EF5304F2F4C
:1009C00040084F272708F400741AF41774127408AB
:1009D0004F2F5618FA2C2608570601390319FA2CFE
:1009E000261CFA2C561456124F08D9005108031928
:1009F000FA2C5927D6180B2D260857060239031949
:100A00000B2DA61C0B2DD614D6124F08D900510859
:100A100003190B2D5B2756191C2D26085706043980
:100A200003191C2D261D1C2D561556134F08D800D2
:100A3000500803191C2D5D27D6192D2D26085706A1
:100A4000083903192D2DA61D2D2DD615D6134F08A7
:100A5000D800500803192D2D5F27561C4B2D261C3E
:100A6000362D59084F0255020318392D56105612CB
:100A70004B2D561A412D59084F02510203184B2D88
:100A8000462D5B084F02530203184B2D5614561681
:100A90004F08DB005927D61C692DA61C542D590878
:100AA0004F0255020318572DD610D612692DD61AAB
:100AB0005F2D59084F0251020318692D642D5B0800
:100AC0004F0253020318692DD614D6164F08DB00C7
:100AD0005B27561D872D261D722D58084F02540284
:100AE0000318752D56115613872D561B7D2D58084A
:100AF0004F0250020318872D822D5A084F025202CE
:100B00000318872D561556174F08DA005D27D61D96
:100B1000A52DA61D902D58084F0254020318932DA1
:100B2000D611D613A52DD61B9B2D58084F02500267
:100B30000318A52DA02D5A084F0252020318A52D07
:100B4000D615D6174F08DA005F272608D700080009
:100B50004008F73C0319072EF819B62D7918B62D61
:100B600040084F276A084F276B084F27791CE22D52
:100B70006A08EC07EC1BC32D6E086C020318CA2D23
:100B8000EC005F27BC2D6E086C070318CA2DEC0023
:100B90005D27C32D6B08ED07ED1BD82D6F086D0287
:100BA0000318E22DED00781E5B27781A5927CE2D09
:100BB0006F086D070318E22DED00781E5927781A8B
:100BC0005B27D82D281DF62D23082406013903198B
:100BD000ED2D7530231CF5304F27230824060239EC
:100BE0000319F62D7430A31CF4304F274308031962
:100BF000FA2D60279730B127F20041080319032E20
:100C00006027F20BFD2D420803190800602F4008F1
:100C10004F27F4012308250601390319132E231841
:100C20007414231CF41423082506023903191C2EFE
:100C3000A3187415A31CF4152308A50074084F27E6
:100C400062084F2763084F2764084F2765084F2F16
:100C5000C8308E2764308E2750308E27F230A2277E
:100C6000A327F8107308033C0319F81464308E2F7F
:100C7000C8308E27C8308E2750308E27F230A227FA
:100C8000A32778117308043C0319781564308E2F5C
:100C900073088F3C031C08003E10FA1D6F2E7A1853
:100CA000622E7308113C031D5A2E7A13791E7A178F
:100CB0003830A52E09308A00A11B0A1673081121AD
:100CC0008A11692E0A308A00A11B0A1673080022B5
:100CD0008A118A1570238A1100380319A62E8A15E5
:100CE00091268A117A1BA32E0D308A00A11B0A16A9
:100CF000730800258A11F200F21FF201F21B3E1464
:100D00003F1E912E0F308A00A11B0A167308002780
:100D10008A1100380319912EF20E7213721972178C
:100D2000A52EBF1EA32E0E308A00A11B0A16730823
:100D300000268A1100380319A32EF20CF20C72134C
:100D4000721A7217A52E7308B127F3008A15B826F8
:100D50008A11791AD12E3E1CD02EBE16721FB32EC8
:100D60001D303E1E4F277218BC2EAA303E194F2749
:100D7000B630BE184F27C62E2A303E1D4F277308A7
:100D8000603C0319C62E3630BE1C4F27F218CC2EFD
:100D9000B830BE194F27D12E3830BE1D4F27D12E67
:100DA0001127730803190800F31FE12EF3137308CA
:100DB000753C031C0800F6304F2705304F270530DF
:100DC00053277308753C031C08007308791A803890
:100DD000F0003A3C0319652770084F27791E080078
:100DE0003E1C0800BE12721FF82E9D303E1E4F277B
:100DF0007218012F2A303E194F273630BE184F2760
:100E0000072FAA303E1D4F27B630BE1C4F27F218C1
:100E10000D2F3830BE194F270800B830BE1D4F27A0
:100E20000800BE1E08003E1A1B2F3E191B2FBE18BD
:100E30001B2FBE1D0800BE129D304F27AA304F2722
:100E4000B6304F27B8304F2F3B182A2F8313BA1FC5
:100E5000392F2D2F8317BA1B392F3A086039031900
:100E6000392F3A0884007039703C0319392F730800
:100E70008000BA0A0319BB0AAC0B0800BE13FA13B0
:100E800008008C1E412F981C482F18121816412F4D
:100E9000181D4C2F1A08412F1A08F30008008A1554
:100EA00088238A110800F20003014F27F20B542F08
:100EB00008004830602F5030602F4B30602F4D308D
:100EC000F3004F27730880384F2F781C692F781054
:100ED0006A2F7814023078180630FA190138F700B2
:100EE000ED3093277708932FF830932FF030932726
:100EF0000330FA190230932F7913FF30932FFE300D
:100F00009E2FF430932FF530932FF913FF30A22F3B
:100F1000FE30AD2FF430A22FF530A22FF700F330C2
:100F2000A2277708A22F9E278A15B1258A11720859
:100F3000031908008A1557248A1108008A156C24A1
:100F40008A110800AD278A15DE258A117208031957
:100F500008008A1599248A1108008A15AE248A117E
:100F600008008A15E2248A11080006138613080077
:060F7000061786170800B9
:101000008128FF30F5000F30F200FF30FE003F3046
:10101000FF0057306020F301F501F20172168C1EBB
:101020000F281A083F39FF00F3078C1E15281A08ED
:10103000FE00F30757306020751D0613751D8613DB
:101040007519061775198617F50A031D0F28F20A78
:10105000F21E0F288C1E2A281A087302031D4B2823
:10106000F601F501F20172164E207F08F6077E08A0
:10107000F607F50A031D3428F20AF21E3428760812
:101080007302031D4B28FF30F5000F30F200FE0104
:10109000FF01573060208A01830101280317831262
:1010A00072088F0075088D0083168C170C140000D1
:1010B000000083120C08FE000E08FF000313080056
:1010C000573C031D08000317831272088F00750830
:1010D0008D007E088C007F088E0083168C1703100D
:1010E0008B1B03148B130C1555308D00AA308D000B
:1010F0008C14000000000C1103188B1783120313CB
:1011000008008B018317A03084008001840A841BAF
:101110008528203084008001840A841F8B28831353
:10112000A03084008001840A841B9228213084002E
:101130008001840A841F982883160313FF308700D8
:1011400083128A01A101071E0528FF30F5000F3028
:10115000F2008A154E208A117E087F04031D05289F
:08116000FF30A1000A1605286A
:10119000F000F3010830F2004D0DF30D7008F3027A
:1011A0000318D428F3070310CD0DF20BCC28F4015B
:1011B0000830F200750DF30DF40D7008F302F7011D
:1011C0000301031C770FF4020318EE287008F307DD
:1011D000F70103010318770FF4070310F50DF20B65
:1011E000DA2808000509A600260C1F39A600070901
:0E11F0001F39A7000800FF3E031DFB28080062
:10120000820700001F341C341F341E341F341E3468
:101210001F341F341E341F341E341F341F341F3438
:101220001F3482070034433400343F343D343B34B0
:101230003C34613400344434423440343E340F345E
:1012400029340034003438342A3400341D34103446
:1012500002340034003400342C341F341E34113472
:101260000334003400342E342D3420341234053449
:1012700004340034003439342F342134143413341A
:1012800006340034003431343034233422341534FD
:101290000734003400340034323424341634083433
:1012A00009340034003433342534173418340B3403
:1012B0000A340034003434343534263427341934B5
:1012C0000C3400340034003428342B341A340D34F8
:1012D000003400343A3436341C341B3400342B349C
:1012E00000340034003460340034003400340034FE
:1012F0000E34003400346D3400346A346734003402
:1013000000340034703471346E346B346C346834AF
:101310000134543462344E346F344A3466346934A0
:101320004C34003400340034003441344934003447
:10133000003400340034003400340034003400340D
:1013400000340034831603130E309F00FF308500F5
:10135000DF308700353086007D3092008312C53043
:101360009F008501860149309200910112151F30BE
:10137000831699008C14181598168312181698174E
:10138000F801F901FA01BE01BF01F220A201C90171
:10139000E601E701E801E9010130DC00DD00EE01D2
:1013A000EF01A301A401A501A8010A30CE00CF01DD
:1013B000C801A901B801B901A01AEE2903179501C6
:1013C0009B0194019A0193019901013092009800C8
:1013D00091009700900196010313A016201B791726
:0C13E000A01BF9178C100B178B170800CE
:1014000082070034003400340034003400340034E7
:10141000003400340034003400340034003400342C
:10142000003490343834003400341D3495340034A2
:101430000034983400340034003400340034003474
:101440005634A034A1340034A334003400340034C2
:101450005734A83400340034AB3400340034003442
:101460005834B0340034B2340034B434003400346E
:101470007334B8340034BA34BB340034003400342C
:101480007434C03400340034003400340034003488
:101490000034C8340034653400340034CD340034B2
:1014A0000034D034003400340034003400340034CC
:1014B00000340034003472340034003400347534A5
:1014C000003400340034003400340034003400347C
:1014D00000340034553400344B3447340034003485
:1014E000003452345334503400344D3448340034D2
:1014F00000340034003446340034493445344F3429
:10150000003400340034003400340034003400343B
:10151000003400340034003400340034003400342B
:1015200000342908FF3E0319D72AFF3E0319BD2ABC
:10153000FF3E031D0800AB30E622F100A830E62292
:10154000F400A930E622BC0074082A02CD0071081C
:101550003C02E82274087002C82075083C02C900E9
:10156000A830E224490203188716A930E224490270
:10157000031C8712A9011F150800AB010C30CD0018
:10158000AA30E622F0002A02031CCF2AAB0AAB0ADB
:10159000CD0BC02AAB03AB03AB30E622AF2A2B083E
:1015A0000319CC2A4D08013C0319CC2AE42A1E0851
:1015B00022020319BA2A1E08A200CD006430E822D4
:1015C0002209C8207508AA00A90A08002B07E22CE6
:1015D000F300F5010830F2004D08F30C0318F42A6B
:1015E000F20BED2ACD01FD2A0310F92AF30C0318A2
:0C15F000CD07CD0CF50CF20BF62A08001C
:101600008207000007340E340F34113412341334BF
:101610001534163417341E341F342434253426343C
:1016200027342E342F343634373439343A343D3479
:101630003E343F34413445344634473449344A34E7
:101640004C344E344F34523453345434553456346D
:10165000573459345B345E345F34623465346D34EE
:101660006F3476347F34803481348B348C348D34D1
:10167000820700003B3429343C341D342A34603462
:10168000103402343D3403343E341234053404340F
:101690003F3406344034073441343834323408346B
:1016A0000934423433340B340A344334343435345B
:1016B00027340C34443428342B341A340D34623437
:1016C000493436341B3461344C344F345534463449
:1016D0004534543474347334753456345734583470
:1016E000F3000B308A00A11B0A163630F200720894
:1016F000382373020319802BF20B772B03010800A8
:101700000B308A00A11B0A1672080023F3000800A0
:10171000F81F0800F10039080C1E952B3802031D34
:10172000952B71089900F91208000308BD00040800
:10173000BC008317390A8400503004020318840166
:10174000380804020319AB2B0408B9009030840751
:1017500071088000F9163C0884003D0883000800E9
:101760000317950A1508F9239B003C301502031C4A
:10177000F72B95019B01940A1408F9239A003C3039
:101780001402031CF72B94019A01930A1308F923FE
:10179000990018301302031CF72B93019901920A48
:1017A0001208F9239800031309308A00A11B0A16B6
:1017B000031711080F3900211202031CF72B013007
:1017C00092009800910A1108F92397000D30110238
:1017D000031CF72B013091009700900A1008F923A1
:1017E000960064301002031CF72B9001960103133E
:1017F0000800F400F7010A307402031C022CF40004
:10180000F70AFB2B770EF0397404080010308400BF
:1018100083170630F200063084070008F400063013
:10182000840203017418013EF418023E7419043E48
:10183000F419083E741A0A3EF41A143E741B283E2A
:10184000F41B503E8000840AF20B0B2C0800DF01D1
:10185000DE015C08F2006308DF0762080318620F0C
:10186000DE07F20B2B2C0800E101E0015D08F2001D
:101870006508E10764080318640FE007F20B382CD1
:1018800008005F08F5005E08CD005C08C8207508F8
:10189000E3004D08E20008006108F5006008CD0093
:1018A0005D08C8207508E5004D08E4000800F60151
:1018B0009125F3010830F200F30CF3139125F304A2
:1018C000F606F20B5C2C9125F606912500380319DB
:1018D000F601F61FF3010800F400F60183168610E6
:1018E000831286101830FB20831606108312061010
:1018F000792C7A2C0000831686148312B125720885
:10190000031908000830F2007408F6069F25F40C4D
:10191000F20B842C76099F2501309F25F501861C4A
:10192000932CF50B8F2CF5018618982CF50B942C25
:101930000800F601BE25F3010830F200F30CF313A2
:10194000BE25F304F606F20B9E2CBE25F606BE2538
:1019500000380319F601F61FF3010800F400F60140
:1019600083168611831286111830FB208316061108
:1019700083120611BB2CBC2C000083168615831223
:10198000DE257208031908000830F2007408F60614
:10199000CC25F40CF20BC62C7609CC250130CC25D5
:1019A000F501861DD52CF50BD12CF5018619DA2C05
:1019B000F50BD62C0800F4000A3074020318073E19
:1019C0003A3E0800031783128D0083168C130C1403
:0819D00083120C080313080048
:101A000082070034003400340034003400340034E1
:101A10000034003400340034003400340034003426
:101A20000034003400340034003400340034003416
:101A30000034003400340034003400340034003406
:101A400000340034003400340034003400340034F6
:101A500000340034003400340034003400340034E6
:101A600000340034003400340034003400340034D6
:101A700000340034003400340034003400340034C6
:101A800000340034003400340034003400340034B6
:101A900000340034003400340034003400340034A6
:101AA0000034003400340034003400340034003496
:101AB0000034003400340034003400340034003486
:101AC0000034003400340034003400340034003476
:101AD0000034003400340034003400340034003466
:101AE0000034003400340034003400340034003456
:101AF0000034003400340034003400340034003446
:101B00000034003400340034003400340034003435
:101B10000034003400340034003400340034003425
:101B200000340301F501861C972DF50B932D061843
:101B30008030F50186189E2DF50B9A2D0800F501D1
:101B4000861CA42DF50BA02D83160139031D061448
:101B5000031906108312F5018618B02DF50BAC2D74
:101B600008001030F200F501CD01861C0800CD0BF5
:101B7000B52DF50BB52DF20BB52D08000301F501C0
:101B8000861DC42DF50BC02D06198030F501861970
:101B9000CB2DF50BC72D0800F501861DD12DF50BBA
:101BA000CD2D83160139031D061503190611831265
:101BB000F5018619DD2DF50BD92D08001030F20046
:101BC000F501CD01861D0800CD0BE22DF50BE22DB0
:061BD000F20BE22D0800FB
:101C000082070034003400340034003400340034DF
:101C10000034003400340034003400340034003424
:101C20000034003400340034003400340034003414
:101C30000034003400340034003400340034003404
:101C400000340034003400340034003400340034F4
:101C500000340034003400340034003400340034E4
:101C600000340034003400340034003400340034D4
:101C700000340034003400340034003400340034C4
:101C800000340034003400340034003400340034B4
:101C900000340034003400340034003400340034A4
:101CA0000034003400340034003400340034003494
:101CB0000034003400340034003400340034003484
:101CC0000034003400340034003400340034003474
:101CD0000034003400340034003400340034003464
:101CE0000034003400340034003400340034003454
:101CF0000034003400340034003400340034003444
:101D00000034003400340034003400340034003433
:101D10000034003400340034003400340034003423
:101D200000347308593C0319992E7308123C031DA3
:101D30009F2EFA12791A0800FA16BF1608007308C7
:101D4000193C031DA72E7A13791E7A170800730811
:101D5000393C031DB12E7A12791A08007A163F1603
:101D60000800791A08007A1E3F12FA1EBF120800F6
:101D700073081D3C031DC02E3E12791E3E1608003E
:101D80007308363C031DC82EBE10791EBE14080011
:101D900073082A3C031DD02E3E11791E3E15080003
:101DA0007308383C031D0800BE11791EBE150800DB
:101E000082070034003400340034003400340034DD
:101E10000034003400340034003400340034003422
:101E20000034003400340034003400340034003412
:101E30000034003400340034003400340034003402
:101E400000340034003400340034003400340034F2
:101E500000340034003400340034003400340034E2
:101E600000340034003400340034003400340034D2
:101E700000340034003400340034003400340034C2
:101E800000340034003400340034003400340034B2
:101E900000340034003400340034003400340034A2
:101EA0000034003400340034003400340034003492
:101EB0000034003400340034003400340034003482
:101EC0000034003400340034003400340034003472
:101ED0000034003400340034003400340034003462
:101EE0000034003400340034003400340034003452
:101EF0000034003400340034003400340034003442
:101F00000034003400340034003400340034003431
:101F10000034003400340034003400340034003421
:021F200000348B
:021FFE00FF3FA3
:02400E00313F40
:1042000000000000000000000000000000003B0073
:10421000010000000000000000000F0029003C0029
:1042200000001D002A0060003A00100002003D005E
:10423000000038002C001F001E00110003003E008B
:1042400000002E002D0020001200050004003F0099
:10425000000039002F002100140013000600400068
:10426000000031003000230022001500070041004B
:104270000000380032002400160008000900420047
:10428000000033002500170018000B000A0043004F
:104290000000340035002600270019000C004400FF
:1042A0000000000028002B001A000D0062004900E9
:1042B0001D0036001C001B002B00000061004C009C
:1042C00050004B004F004800530055000E005200B4
:1042D00000006D004D006A00670046004700450081
:1042E000700071006E006B006C0068005400650087
:1042F000000072006F0000004E006900660074004C
:1043000073007500000000004A000000000000007B
:104310000000000000005600570058000000000098
:1043200059005A005C005D0037005E005F0003002A
:10433000450069006600660065006C0020003300DF
:1043400020004C00430044002000200020002000FA
:10435000280023001B004000210039002700340002
:104360002F002F00380029004400240052001E00B6
:10437000640019007800140096000F00B4000B00D0
:06438000DC000600020053
:00000001FF
