:020000040000FA
:10000000A0018A150A1200280B1F1128FD00030EFB
:100010008301FC008C10FB0A7C0E8300FD0E7D0E1C
:1000200009008A15A2218A11B12A82074534693450
:100030006634663465346C34203431342E343134D3
:10004000303469342034313431342F343234303464
:100050003034343400348B174B080339031D3428F3
:1000600083168614831237288316861583124B084D
:100070000339031D442886184D288B1383168611D7
:1000800083128611B027552B86194D288B138316A2
:10009000861083128610BF27B22BF91E6B280C1E08
:1000A0006B288316861086118312861086113808F5
:1000B0003902031D5D28F9122B288317380A8400A2
:1000C00050300402031884010408B80090308407FB
:1000D000000899002B288C1E822883168610861112
:1000E000831286108611981C7828181218162B284F
:1000F000181D7C281A082B281A08F300FA1FEA2872
:100100003A272B287B084B020319372883168610C1
:1001100086118312861086118B13C8307B02031C54
:10012000A028FB00CB008B178A15B0238A11013061
:10013000A900791FA4287913A523F0306527A728E3
:100140007B08CB008B17A728F91FA7289B278A15A8
:1001500091228A114B182B28781F2B28F919D328A4
:100160007919BA28F91C2B28CE0BBA280A30CE00F0
:10017000CF0AFF240509F400740C1F39F40026028D
:100180000319C6287408A600FE30CF2807091F39B6
:10019000F400270203192B287408A700FF30C000C1
:1001A000CB27CE248D2ACC0B2B284A08CC00CB277A
:1001B0008A15F2208A11F401261AF414271A7414ED
:1001C00074086527260EF039F40027080F397404E7
:1001D00065278D2AF817F9117308033C031D0529BB
:1001E000F63065270330652749086527220865270B
:1001F0000301871A01306527A830C7276527A93072
:10020000C72765272A0865272B287308043C031D88
:100210001129A20157271A3C031C942A7308A83EEF
:1002200030297308063C031D1E29073083275727F2
:10023000073C031C942A7308903E30297308053C40
:10024000031D4D29073083275727730903192F29C9
:1002500073088F3C031C942A7308003E3029C23077
:10026000F2005727031783168C183429831272085B
:100270008D0073088C0083168C1303108B1B0314E2
:100280008B130C1555308D00AA308D008C1403187B
:100290008B170C11831203132B287308073C031DC3
:1002A00054295727A8002B287308083C031D5B29F5
:1002B0007910F811BA2A7308093C031D6B295727D6
:1002C000E6005727E7005727E8005727E900B6243C
:1002D0007910F815BA2A73080A3C031D79295727A3
:1002E000B224EE005727B224EF00EC01ED0179149F
:1002F000BA2A73080B3C0319932A73080C3C031D9C
:1003000088295727B224DC005727B224DD00A3290F
:1003100073080D3C031D9629F81D2B28F9192B286D
:10032000F730C0008613BE2586172B2873080E3CB5
:10033000031DA82957275727E2005727E30057270F
:10034000E4005727E5008A15272434248A112B2836
:1003500073080F3C031DAE2978162B287308103C38
:10036000031DB42978122B287308113C031DB929E9
:100370002B287308123C031DBF29F8122B28730881
:10038000133C031DC529F8132B287308143C031DC7
:10039000CD29F910791578172B287308153C031D02
:1003A000D529F910791178172B287308163C031DED
:1003B000E929781F2B28F9182B28F9192B2805096A
:1003C000A600260C1F39A60007091F39A700FD301B
:1003D000CF287308173C031DF4295727B224CA00FD
:1003E000CC00F91578172B287308183C031DF92940
:1003F0002B287308193C031D102A5727D0005727B4
:10040000D1005727D2005727D3005727D4005727AA
:10041000D500D601FF30D700F914791178172B28B1
:1004200073081A3C031D162A78132B2873081B3CEB
:10043000031D292A163084000630F200572783173F
:100440008000840AF20B1E2ACB018A1506248A1129
:100450002B2873081C3C031D302ACB27C1248D2A6E
:100460007308203C031D482A5727BB005727BA00B2
:100470005727AC003A043B040319402AFA172B28EB
:10048000073083279927A22783018A150A1201289A
:100490007308213C031D8F2A5727F4008313731818
:1004A00083175727F5008400CB27F63065272030C7
:1004B0006527F41B702A0630F2007408213C0319EA
:1004C000692A00086527840A03198317F20B612A39
:1004D0008D2A7508C7276527F50AF20B692A8D2A28
:1004E000F4130330F2000317831274088F007508A9
:1004F0008D0083168C170C140000000083120C086A
:10050000FE000E08FF0003137F0865277E0865279D
:10051000F50A0319F40AF20B732ACE272B28730865
:10052000223C031D962A572757272B287308803C07
:10053000031DBC2A5727013C031D2B28F801F90194
:10054000FA01BE01BF01D601B801B9018712CB275C
:10055000A01FAC2AA227F917201FB12A0730832732
:100560007917B624C230C727023C0319FA1579154A
:100570007817F817F8162B287308873C031DC82A2C
:10058000F6306527073065272808652705304E2B8C
:100590007308883C0319D42A7308893C0319D42AA8
:1005A00073088A3C031DEE2AF63065277918E82A7D
:1005B000F819DC2A08304C2B0930652766086527B6
:1005C00067086527680865276908652702304E2B8C
:1005D0000A3065276E0865276F08052B73088B3C6A
:1005E000031DFA2AF63065270B3065270130652791
:1005F0000130052B73088C3C031D082BF630652752
:100600000C3065275C0865275D08652704304E2B94
:1006100073088F3C0319102B7308903C031D162B95
:10062000F63065270F30781E10304C2B7308923C43
:10063000031D202BF63065270301F81E12304C2BCA
:100640007308943C03192C2B7308953C03192C2B2D
:100650007308993C031D432BF6306527F918342B9A
:100660001430791D15304C2B19306527500865273B
:1006700051086527520865275308652754086527E0
:10068000550865272B2873089A3C031D2B28F63044
:1006900065270301781F1A306527063069272B2844
:1006A000272792272B2895272B288316861083121D
:1006B0008610F61F532B7308AA3C0319A22B73084C
:1006C000FC3C0319502B7308FE3C0319502BFA1DF8
:1006D000942B7A19782B7308E03C031D712B7A1444
:1006E0002B287308E13C031D942BFA147A152B2850
:1006F000FA18822B7308F03C0319982BFA10791220
:100700007A142B287308F03C0319982B7308773C54
:10071000031D9F2BF919922B06134F30791A80383D
:10072000652706177A119F2B7308F03C031D9A2B3F
:1007300079162B28F9199F2B06135E2606177912B6
:100740007A102B28A52320172B288C27FA1D8A27FF
:10075000023083279727061708009B272B289E2700
:10076000C8012B288316861183128611F61FAF2B22
:100770004808031DC72B7308AA3C0319AB2C730848
:10078000FC3C0319AD2B7308FE3C0319AD2BC80AC2
:100790004808013C0319D52B4808023C0319DF2BFC
:1007A0004808033C0319E22BE82B7308C400C41B60
:1007B000DD2B441BDD2BC4192B28C8012B28730803
:1007C000C5002B287308C600F81CEA2BC7012B288C
:1007D0007308C700C801A3014418A314C418231444
:1007E0002308F838C000C301C101C201441DFB2B1E
:1007F0009430C727C300C513441AC5174508EA003B
:10080000F81D252CF701C51BF709DF07770803182A
:10081000770FDE07DE1B242C8A1541248A11660817
:1008200062020319162C031C252C1C2C670863027A
:1008300003191C2C031C252C6708E3006608E20042
:100840008A1527248A11252CBC24C613C41AC6175E
:10085000781A2C2CC609C60A4608EB00F81D532C42
:10086000F701C61BF709E10777080318770FE007C0
:10087000E01B522C8A154C248A1168086402031963
:10088000442C031C532C4A2C6908650203194A2C7A
:10089000031C532C6908E5006808E4008A15342419
:1008A0008A11532CB724F81C7B2CC719652C4708D8
:1008B0000F3903196E2C471C612C9130C727C100DA
:1008C0006E2C9230C727C1006E2C471C6B2C9030C9
:1008D000C727C1006E2C9330C727C100781D7B2C21
:1008E000471E762C9530C727C2007B2CC71E7B2C59
:1008F0009630C727C200F81E2B28F9192B2886131B
:10090000BE25281C912C23082406013903198A2CA2
:100910002318A12C2308240602390319912CA318AB
:10092000A12CA81CA72C23082406013903199A2CF2
:10093000231CA12C2308240602390319A72CA31871
:10094000A72C2308A500A509F730C000BE258617EF
:100950002308A4002B283E26F8184E26A027861729
:10096000A0172B280038031901300800BC24E1012E
:10097000E001E501E4010800DF01DE01E301E2013D
:100980000800FC306527163084000630F20083171B
:1009900000086527840AF20BC72C0800F81ED82C23
:1009A000F930271EF83065270030652700306527AD
:1009B0004008FD3C031DE22C400865272608F92469
:1009C0002708F92C4008FE3C031DF02CF91CEC2CE8
:1009D0007430261EF430652F400865272608F92C50
:1009E000F91CF62C7530271EF530652F4008652759
:1009F0002708F400741AF41774127408652F561837
:100A0000102D2608570601390319102D261C102D0C
:100A1000561456124F08D90051080319102D6F278C
:100A2000D618212D2608570602390319212DA61C98
:100A3000212DD614D6124F08D90051080319212DA3
:100A400071275619322D2608570604390319322DFD
:100A5000261D322D561556134F08D800500803197D
:100A6000322D7327D619432D260857060839031946
:100A7000432DA61D432DD615D6134F08D800500878
:100A80000319432D7527561C612D261C4C2D590822
:100A90004F02550203184F2D56105612612D561A4B
:100AA000572D59084F0251020318612D5C2D5B0828
:100AB0004F0253020318612D561456164F08DB00DF
:100AC0006F27D61C7F2DA61C6A2D59084F02550290
:100AD00003186D2DD610D6127F2DD61A752D5908F4
:100AE0004F02510203187F2D7A2D5B084F025302EB
:100AF00003187F2DD614D6164F08DB007127561D1C
:100B00009D2D261D882D58084F02540203188B2D49
:100B1000561156139D2D561B932D58084F02500207
:100B200003189D2D982D5A084F02520203189D2D2F
:100B3000561556174F08DA007327D61DBB2DA61D74
:100B4000A62D58084F0254020318A92DD611D6130A
:100B5000BB2DD61BB12D58084F0250020318BB2DD8
:100B6000B62D5A084F0252020318BB2DD615D617C0
:100B70004F08DA0075272608D70008004008F73C20
:100B800003191D2EF819CC2D7918CC2D4008652796
:100B90006A0865276B086527791CF82D6A08EC0739
:100BA000EC1BD92D6E086C020318E02DEC007527A4
:100BB000D22D6E086C070318E02DEC007327D92D99
:100BC0006B08ED07ED1BEE2D6F086D020318F82D75
:100BD000ED00781E7127781A6F27E42D6F086D07D6
:100BE0000318F82DED00781E6F27781A7127EE2D67
:100BF000281D0C2E2308240601390319032E7530F5
:100C0000231CF530652723082406023903190C2E0E
:100C10007430A31CF430652743080319102E76277F
:100C20009730C727F20041080319192E7627F20BD7
:100C3000132E420803190800762F40086527F40197
:100C40002308250601390319292E23187414231C9F
:100C5000F4142308250602390319322EA31874153B
:100C6000A31CF4152308A5007408652762086527EE
:100C700063086527640865276508652FC830A427C1
:100C80006430A4275030A427F230B827B927F810D1
:100C90007308033C0319F8146430A42FC830A42748
:100CA000C830A4275030A427F230B827B9277811CC
:100CB0007308043C031978156430A42F73088F3C23
:100CC000031C08003E10FA1D852E7A18782E730832
:100CD000113C031D702E7A13791E7A173830BB2E03
:100CE00009308A00A11B0A16730811218A117F2E70
:100CF0000A308A00A11B0A16730800228A118A157D
:100D000070238A1100380319BC2E8A1591268A1186
:100D10007A1BB92E0D308A00A11B0A167308002514
:100D20008A11F200F21FF201F21B3E143F1EA72EA1
:100D30000F308A00A11B0A16730800278A11003899
:100D40000319A72EF20E721372197217BB2EBF1E53
:100D5000B92E0E308A00A11B0A16730800268A11CC
:100D600000380319B92EF20CF20C7213721A7217B2
:100D7000BB2E7308C727F3008A15B8268A11791A83
:100D8000E72E3E1CE62EBE16721FC92E1D303E1EDB
:100D900065277218D22EAA303E196527B630BE18C4
:100DA0006527DC2E2A303E1D65277308603C031939
:100DB000DC2E3630BE1C6527F218E22EB830BE1984
:100DC0006527E72E3830BE1D6527E72E27277308D5
:100DD00003190800F31FF72EF3137308753C031C67
:100DE0000800F63065270530652705306927730848
:100DF000753C031C08007308791A8038F0003A3CEF
:100E000003197B2770086527791E08003E1C08001F
:100E1000BE12721F0E2F9D303E1E65277218172FAF
:100E20002A303E1965273630BE1865271D2FAA3097
:100E30003E1D6527B630BE1C6527F218232F3830BB
:100E4000BE1965270800B830BE1D65270800BE1E04
:100E500008003E1A312F3E19312FBE18312FBE1D0A
:100E60000800BE129D306527AA306527B630652779
:100E7000B830652F3B18402F8313BA1F4F2F432FD5
:100E80008317BA1B4F2F3A08603903194F2F3A08BE
:100E900084007039703C03194F2F73088000BA0A20
:100EA0000319BB0AAC0B0800BE13FA1308008C1E12
:100EB000572F981C5E2F18121816572F181D622FC7
:100EC0001A08572F1A08F30008008A1588238A1178
:100ED0000800F20003016527F20B6A2F0800483072
:100EE000762F5030762F4B30762F4D30F30065271C
:100EF00073088038652F781C7F2F7810802F781426
:100F0000023078180630FA190138F700ED30A927B9
:100F10007708A92FF830A92FF030A9270330FA1944
:100F20000230A92F7913FF30A92FFE30B42FF430EF
:100F3000A92FF530A92FF913FF30B82FFE30C32F9A
:100F4000F430B82FF530B82FF700F330B827770812
:100F5000B82FB4278A15B1258A1172080319080021
:100F60008A1557248A1108008A156C248A110800F2
:100F7000C3278A15DE258A117208031908008A150D
:100F800099248A1108008A15AE248A1108008A154E
:100F9000E2248A1108000613861308000617861734
:020FA000080047
:101000008128FF30F5000F30F200FF30FE003F3046
:10101000FF0057306020F301F501F20172168C1EBB
:101020000F281A083F39FF00F3078C1E15281A08ED
:10103000FE00F30757306020751D0613751D8613DB
:101040007519061775198617F50A031D0F28F20A78
:10105000F21E0F288C1E2A281A087302031D4B2823
:10106000F601F501F20172164E207F08F6077E08A0
:10107000F607F50A031D3428F20AF21E3428760812
:101080007302031D4B28FF30F5000F30F200FE0104
:10109000FF01573060208A01830101280317831262
:1010A00072088F0075088D0083168C170C140000D1
:1010B000000083120C08FE000E08FF000313080056
:1010C000573C031D08000317831272088F00750830
:1010D0008D007E088C007F088E0083168C1703100D
:1010E0008B1B03148B130C1555308D00AA308D000B
:1010F0008C14000000000C1103188B1783120313CB
:1011000008008B018317A03084008001840A841BAF
:101110008528203084008001840A841F8B28831353
:10112000A03084008001840A841B9228213084002E
:101130008001840A841F982883160313FF308700D8
:1011400083128A01A101071E0528FF30F5000F3028
:10115000F2008A154E208A117E087F04031D05289F
:08116000FF30A1000A1605286A
:10119000F000F3010830F2004D0DF30D7008F3027A
:1011A0000318D428F3070310CD0DF20BCC28F4015B
:1011B0000830F200750DF30DF40D7008F302F7011D
:1011C0000301031C770FF4020318EE287008F307DD
:1011D000F70103010318770FF4070310F50DF20B65
:1011E000DA2808000509A600260C1F39A600070901
:0E11F0001F39A7000800FF3E031DFB28080062
:10120000820700001F341C341F341E341F341E3468
:101210001F341F341E341F341E341F341F341F3438
:101220001F3482070034433400343F343D343B34B0
:101230003C34613400344434423440343E340F345E
:101240005B340034003438342A3400341D34103414
:1012500002340034003400342C341F341E34113472
:101260000334003400342E342D3420341234053449
:1012700004340034003439342F342134143413341A
:1012800006340034003431343034233422341534FD
:101290000734003400340034323424341634083433
:1012A00009340034003433342534173418340B3403
:1012B0000A340034003434343534263427341934B5
:1012C0000C3400340034003428342B341A340D34F8
:1012D000003400343A3436341C341B3400342B349C
:1012E00000340034003460340034003400340034FE
:1012F0000E34003400346D3400346A346734003402
:1013000000340034703471346E346B346C346834AF
:101310000134543462344E346F344A3466346934A0
:101320004C34003400340034003441344934003447
:10133000003400340034003400340034003400340D
:1013400000340034831603130E309F00FF308500F5
:10135000DF308700353086007D3092008312C53043
:101360009F008501860149309200910112151F30BE
:10137000831699008C14181598168312181698174E
:10138000F801F901FA01BE01BF01F220A201C90171
:10139000E601E701E801E9010130DC00DD00EE01D2
:1013A000EF01A301A401A501A8010A30CE00CF01DD
:1013B000C801A901B801B901A01AEE2903179501C6
:1013C0009B0194019A0193019901013092009800C8
:1013D00091009700900196010313A016201B791726
:0C13E000A01BF9178C100B178B170800CE
:1014000082070034003400340034003400340034E7
:10141000003400340034003400340034003400342C
:10142000003490343834003400341D3495340034A2
:101430000034983400340034003400340034003474
:101440005634A034A1340034A334003400340034C2
:101450005734A83400340034AB3400340034003442
:101460005834B0340034B2340034B434003400346E
:101470007334B8340034BA34BB340034003400342C
:101480007434C03400340034003400340034003488
:101490000034C8340034653400340034CD340034B2
:1014A0000034D034003400340034003400340034CC
:1014B00000340034003472340034003400347534A5
:1014C000003400340034003400340034003400347C
:1014D00000340034553400344B3447340034003485
:1014E000003452345334503400344D3448340034D2
:1014F00000340034003446340034493445344F3429
:10150000003400340034003400340034003400343B
:10151000003400340034003400340034003400342B
:1015200000342908FF3E0319D72AFF3E0319BD2ABC
:10153000FF3E031D0800AB30E622F100A830E62292
:10154000F400A930E622BC0074082A02CD0071081C
:101550003C02E82274087002C82075083C02C900E9
:10156000A830E224490203188716A930E224490270
:10157000031C8712A9011F150800AB010C30CD0018
:10158000AA30E622F0002A02031CCF2AAB0AAB0ADB
:10159000CD0BC02AAB03AB03AB30E622AF2A2B083E
:1015A0000319CC2A4D08013C0319CC2AE42A1E0851
:1015B00022020319BA2A1E08A200CD006430E822D4
:1015C0002209C8207508AA00A90A08002B07E22CE6
:1015D000F300F5010830F2004D08F30C0318F42A6B
:1015E000F20BED2ACD01FD2A0310F92AF30C0318A2
:0C15F000CD07CD0CF50CF20BF62A08001C
:101600008207000007340E340F34113412341334BF
:101610001534163417341E341F342434253426343C
:1016200027342E342F343634373439343A343D3479
:101630003E343F34413445344634473449344A34E7
:101640004C344E344F34523453345434553456346D
:10165000573459345B345E345F34623465346D34EE
:101660006F3476347F34803481348B348C348D34D1
:10167000820700003B345B343C341D342A34603430
:10168000103402343D3403343E341234053404340F
:101690003F3406344034073441343834323408346B
:1016A0000934423433340B340A344334343435345B
:1016B00027340C34443428342B341A340D34623437
:1016C000493436341B3461344C344F345534463449
:1016D0004534543474347334753456345734583470
:1016E000F3000B308A00A11B0A163630F200720894
:1016F000382373020319802BF20B772B03010800A8
:101700000B308A00A11B0A1672080023F3000800A0
:10171000F81F0800F10039080C1E952B3802031D34
:10172000952B71089900F91208000308BD00040800
:10173000BC008317390A8400503004020318840166
:10174000380804020319AB2B0408B9009030840751
:1017500071088000F9163C0884003D0883000800E9
:101760000317950A1508F9239B003C301502031C4A
:10177000F72B95019B01940A1408F9239A003C3039
:101780001402031CF72B94019A01930A1308F923FE
:10179000990018301302031CF72B93019901920A48
:1017A0001208F9239800031309308A00A11B0A16B6
:1017B000031711080F3900211202031CF72B013007
:1017C00092009800910A1108F92397000D30110238
:1017D000031CF72B013091009700900A1008F923A1
:1017E000960064301002031CF72B9001960103133E
:1017F0000800F400F7010A307402031C022CF40004
:10180000F70AFB2B770EF0397404080010308400BF
:1018100083170630F200063084070008F400063013
:10182000840203017418013EF418023E7419043E48
:10183000F419083E741A0A3EF41A143E741B283E2A
:10184000F41B503E8000840AF20B0B2C0800DF01D1
:10185000DE015C08F2006308DF0762080318620F0C
:10186000DE07F20B2B2C0800E101E0015D08F2001D
:101870006508E10764080318640FE007F20B382CD1
:1018800008005F08F5005E08CD005C08C8207508F8
:10189000E3004D08E20008006108F5006008CD0093
:1018A0005D08C8207508E5004D08E4000800F60151
:1018B0009125F3010830F200F30CF3139125F304A2
:1018C000F606F20B5C2C9125F606912500380319DB
:1018D000F601F61FF3010800F400F60183168610E6
:1018E000831286101830FB20831606108312061010
:1018F000792C7A2C0000831686148312B125720885
:10190000031908000830F2007408F6069F25F40C4D
:10191000F20B842C76099F2501309F25F501861C4A
:10192000932CF50B8F2CF5018618982CF50B942C25
:101930000800F601BE25F3010830F200F30CF313A2
:10194000BE25F304F606F20B9E2CBE25F606BE2538
:1019500000380319F601F61FF3010800F400F60140
:1019600083168611831286111830FB208316061108
:1019700083120611BB2CBC2C000083168615831223
:10198000DE257208031908000830F2007408F60614
:10199000CC25F40CF20BC62C7609CC250130CC25D5
:1019A000F501861DD52CF50BD12CF5018619DA2C05
:1019B000F50BD62C0800F4000A3074020318073E19
:1019C0003A3E0800031783128D0083168C130C1403
:0819D00083120C080313080048
:101A000082070034003400340034003400340034E1
:101A10000034003400340034003400340034003426
:101A20000034003400340034003400340034003416
:101A30000034003400340034003400340034003406
:101A400000340034003400340034003400340034F6
:101A500000340034003400340034003400340034E6
:101A600000340034003400340034003400340034D6
:101A700000340034003400340034003400340034C6
:101A800000340034003400340034003400340034B6
:101A900000340034003400340034003400340034A6
:101AA0000034003400340034003400340034003496
:101AB0000034003400340034003400340034003486
:101AC0000034003400340034003400340034003476
:101AD0000034003400340034003400340034003466
:101AE0000034003400340034003400340034003456
:101AF0000034003400340034003400340034003446
:101B00000034003400340034003400340034003435
:101B10000034003400340034003400340034003425
:101B200000340301F501861C972DF50B932D061843
:101B30008030F50186189E2DF50B9A2D0800F501D1
:101B4000861CA42DF50BA02D83160139031D061448
:101B5000031906108312F5018618B02DF50BAC2D74
:101B600008001030F200F501CD01861C0800CD0BF5
:101B7000B52DF50BB52DF20BB52D08000301F501C0
:101B8000861DC42DF50BC02D06198030F501861970
:101B9000CB2DF50BC72D0800F501861DD12DF50BBA
:101BA000CD2D83160139031D061503190611831265
:101BB000F5018619DD2DF50BD92D08001030F20046
:101BC000F501CD01861D0800CD0BE22DF50BE22DB0
:061BD000F20BE22D0800FB
:101C000082070034003400340034003400340034DF
:101C10000034003400340034003400340034003424
:101C20000034003400340034003400340034003414
:101C30000034003400340034003400340034003404
:101C400000340034003400340034003400340034F4
:101C500000340034003400340034003400340034E4
:101C600000340034003400340034003400340034D4
:101C700000340034003400340034003400340034C4
:101C800000340034003400340034003400340034B4
:101C900000340034003400340034003400340034A4
:101CA0000034003400340034003400340034003494
:101CB0000034003400340034003400340034003484
:101CC0000034003400340034003400340034003474
:101CD0000034003400340034003400340034003464
:101CE0000034003400340034003400340034003454
:101CF0000034003400340034003400340034003444
:101D00000034003400340034003400340034003433
:101D10000034003400340034003400340034003423
:101D200000347308593C0319992E7308123C031DA3
:101D30009F2EFA12791A0800FA16BF1608007308C7
:101D4000193C031DA72E7A13791E7A170800730811
:101D5000393C031DB12E7A12791A08007A163F1603
:101D60000800791A08007A1E3F12FA1EBF120800F6
:101D700073081D3C031DC02E3E12791E3E1608003E
:101D80007308363C031DC82EBE10791EBE14080011
:101D900073082A3C031DD02E3E11791E3E15080003
:101DA0007308383C031D0800BE11791EBE150800DB
:101E000082070034003400340034003400340034DD
:101E10000034003400340034003400340034003422
:101E20000034003400340034003400340034003412
:101E30000034003400340034003400340034003402
:101E400000340034003400340034003400340034F2
:101E500000340034003400340034003400340034E2
:101E600000340034003400340034003400340034D2
:101E700000340034003400340034003400340034C2
:101E800000340034003400340034003400340034B2
:101E900000340034003400340034003400340034A2
:101EA0000034003400340034003400340034003492
:101EB0000034003400340034003400340034003482
:101EC0000034003400340034003400340034003472
:101ED0000034003400340034003400340034003462
:101EE0000034003400340034003400340034003452
:101EF0000034003400340034003400340034003442
:101F00000034003400340034003400340034003431
:101F10000034003400340034003400340034003421
:021F200000348B
:021FFE00FF3FA3
:02400E00313F40
:1042000000000000000000000000000000003B0073
:10421000010000000000000000000F005B003C00F7
:1042200000001D002A0060003A00100002003D005E
:10423000000038002C001F001E00110003003E008B
:1042400000002E002D0020001200050004003F0099
:10425000000039002F002100140013000600400068
:10426000000031003000230022001500070041004B
:104270000000380032002400160008000900420047
:10428000000033002500170018000B000A0043004F
:104290000000340035002600270019000C004400FF
:1042A0000000000028002B001A000D0062004900E9
:1042B0001D0036001C001B002B00000061004C009C
:1042C00050004B004F004800530055000E005200B4
:1042D00000006D004D006A00670046004700450081
:1042E000700071006E006B006C0068005400650087
:1042F000000072006F0000004E006900660074004C
:1043000073007500000000004A000000000000007B
:104310000000000000005600570058000000000098
:1043200059005A005C005D0037005E005F0003002A
:10433000450069006600660065006C0020003300DF
:1043400020004C00430044002000200020002000FA
:10435000280023001B004000210039002700340002
:104360002F002F00380029004400240052001E00B6
:10437000640019007800140096000F00B4000B00D0
:06438000DC000600030052
:00000001FF
